{
  "contractName": "Airdrop",
  "abi": [
    {
      "inputs": [
        {
          "internalType": "address",
          "name": "token_",
          "type": "address"
        }
      ],
      "stateMutability": "nonpayable",
      "type": "constructor"
    },
    {
      "anonymous": false,
      "inputs": [
        {
          "indexed": true,
          "internalType": "address",
          "name": "previousOwner",
          "type": "address"
        },
        {
          "indexed": true,
          "internalType": "address",
          "name": "newOwner",
          "type": "address"
        }
      ],
      "name": "OwnershipTransferred",
      "type": "event"
    },
    {
      "inputs": [],
      "name": "owner",
      "outputs": [
        {
          "internalType": "address",
          "name": "",
          "type": "address"
        }
      ],
      "stateMutability": "view",
      "type": "function",
      "constant": true
    },
    {
      "inputs": [],
      "name": "renounceOwnership",
      "outputs": [],
      "stateMutability": "nonpayable",
      "type": "function"
    },
    {
      "inputs": [
        {
          "internalType": "address",
          "name": "newOwner",
          "type": "address"
        }
      ],
      "name": "transferOwnership",
      "outputs": [],
      "stateMutability": "nonpayable",
      "type": "function"
    },
    {
      "inputs": [
        {
          "components": [
            {
              "internalType": "address",
              "name": "_recipient",
              "type": "address"
            },
            {
              "internalType": "uint256",
              "name": "_amount",
              "type": "uint256"
            }
          ],
          "internalType": "struct Airdrop.Drop[]",
          "name": "_drops",
          "type": "tuple[]"
        }
      ],
      "name": "addRecipients",
      "outputs": [],
      "stateMutability": "nonpayable",
      "type": "function"
    },
    {
      "inputs": [],
      "name": "executeAirdrop",
      "outputs": [],
      "stateMutability": "nonpayable",
      "type": "function"
    },
    {
      "inputs": [
        {
          "internalType": "uint256",
          "name": "_amount",
          "type": "uint256"
        }
      ],
      "name": "reclaimTokens",
      "outputs": [],
      "stateMutability": "nonpayable",
      "type": "function"
    },
    {
      "inputs": [
        {
          "internalType": "address",
          "name": "token_",
          "type": "address"
        }
      ],
      "name": "setToken",
      "outputs": [],
      "stateMutability": "nonpayable",
      "type": "function"
    },
    {
      "inputs": [],
      "name": "getAllRecipients",
      "outputs": [
        {
          "internalType": "address[]",
          "name": "",
          "type": "address[]"
        }
      ],
      "stateMutability": "view",
      "type": "function",
      "constant": true
    }
  ],
  "bytecode": "0x60806040523480156200001157600080fd5b506040516200188d3803806200188d833981810160405281019062000037919062000182565b620000576200004b6200009f60201b60201c565b620000a760201b60201c565b80600160006101000a81548173ffffffffffffffffffffffffffffffffffffffff021916908373ffffffffffffffffffffffffffffffffffffffff1602179055505062000207565b600033905090565b60008060009054906101000a900473ffffffffffffffffffffffffffffffffffffffff169050816000806101000a81548173ffffffffffffffffffffffffffffffffffffffff021916908373ffffffffffffffffffffffffffffffffffffffff1602179055508173ffffffffffffffffffffffffffffffffffffffff168173ffffffffffffffffffffffffffffffffffffffff167f8be0079c531659141344cd1fd0a4f28419497f9722a3daafe3b4186f6b6457e060405160405180910390a35050565b6000815190506200017c81620001ed565b92915050565b6000602082840312156200019b576200019a620001e8565b5b6000620001ab848285016200016b565b91505092915050565b6000620001c182620001c8565b9050919050565b600073ffffffffffffffffffffffffffffffffffffffff82169050919050565b600080fd5b620001f881620001b4565b81146200020457600080fd5b50565b61167680620002176000396000f3fe608060405234801561001057600080fd5b50600436106100885760003560e01c80637760da7f1161005b5780637760da7f146100d95780638da5cb5b146100f5578063b74513c114610113578063f2fde38b1461013157610088565b8063144fa6d71461008d5780635aa9372b146100a95780636ddb5c41146100c5578063715018a6146100cf575b600080fd5b6100a760048036038101906100a29190610ec0565b61014d565b005b6100c360048036038101906100be9190610eed565b61020d565b005b6100cd6105c9565b005b6100d7610907565b005b6100f360048036038101906100ee9190610f63565b61098f565b005b6100fd610b03565b60405161010a919061110f565b60405180910390f35b61011b610b2c565b6040516101289190611153565b60405180910390f35b61014b60048036038101906101469190610ec0565b610bba565b005b610155610cb2565b73ffffffffffffffffffffffffffffffffffffffff16610173610b03565b73ffffffffffffffffffffffffffffffffffffffff16146101c9576040517f08c379a00000000000000000000000000000000000000000000000000000000081526004016101c0906111b5565b60405180910390fd5b80600160006101000a81548173ffffffffffffffffffffffffffffffffffffffff021916908373ffffffffffffffffffffffffffffffffffffffff16021790555050565b610215610cb2565b73ffffffffffffffffffffffffffffffffffffffff16610233610b03565b73ffffffffffffffffffffffffffffffffffffffff1614610289576040517f08c379a0000000000000000000000000000000000000000000000000000000008152600401610280906111b5565b60405180910390fd5b6000805b82518110156102d5578281815181106102a9576102a861145a565b5b602002602001015160200151826102c091906112b0565b915080806102cd906113b3565b91505061028d565b5080600160009054906101000a900473ffffffffffffffffffffffffffffffffffffffff1673ffffffffffffffffffffffffffffffffffffffff166370a08231306040518263ffffffff1660e01b8152600401610332919061110f565b60206040518083038186803b15801561034a57600080fd5b505afa15801561035e573d6000803e3d6000fd5b505050506040513d601f19601f820116820180604052508101906103829190610f90565b10156103c3576040517f08c379a00000000000000000000000000000000000000000000000000000000081526004016103ba906111d5565b60405180910390fd5b60005b8251811015610524576000805b600280549050811015610488578483815181106103f3576103f261145a565b5b60200260200101516000015173ffffffffffffffffffffffffffffffffffffffff16600282815481106104295761042861145a565b5b9060005260206000200160009054906101000a900473ffffffffffffffffffffffffffffffffffffffff1673ffffffffffffffffffffffffffffffffffffffff16141561047557600191505b8080610480906113b3565b9150506103d3565b50806105105760028483815181106104a3576104a261145a565b5b6020026020010151600001519080600181540180825580915050600190039060005260206000200160009091909190916101000a81548173ffffffffffffffffffffffffffffffffffffffff021916908373ffffffffffffffffffffffffffffffffffffffff1602179055505b50808061051c906113b3565b9150506103c6565b5060005b82518110156105c4578281815181106105445761054361145a565b5b602002602001015160200151600360008584815181106105675761056661145a565b5b60200260200101516000015173ffffffffffffffffffffffffffffffffffffffff1673ffffffffffffffffffffffffffffffffffffffff1681526020019081526020016000208190555080806105bc906113b3565b915050610528565b505050565b6105d1610cb2565b73ffffffffffffffffffffffffffffffffffffffff166105ef610b03565b73ffffffffffffffffffffffffffffffffffffffff1614610645576040517f08c379a000000000000000000000000000000000000000000000000000000000815260040161063c906111b5565b60405180910390fd5b60005b60028054905081101561089457600160009054906101000a900473ffffffffffffffffffffffffffffffffffffffff1673ffffffffffffffffffffffffffffffffffffffff1663a9059cbb600283815481106106a7576106a661145a565b5b9060005260206000200160009054906101000a900473ffffffffffffffffffffffffffffffffffffffff1660036000600286815481106106ea576106e961145a565b5b9060005260206000200160009054906101000a900473ffffffffffffffffffffffffffffffffffffffff1673ffffffffffffffffffffffffffffffffffffffff1673ffffffffffffffffffffffffffffffffffffffff168152602001908152602001600020546040518363ffffffff1660e01b815260040161076d92919061112a565b602060405180830381600087803b15801561078757600080fd5b505af115801561079b573d6000803e3d6000fd5b505050506040513d601f19601f820116820180604052508101906107bf9190610f36565b6107fe576040517f08c379a00000000000000000000000000000000000000000000000000000000081526004016107f5906111f5565b60405180910390fd5b600060036000600284815481106108185761081761145a565b5b9060005260206000200160009054906101000a900473ffffffffffffffffffffffffffffffffffffffff1673ffffffffffffffffffffffffffffffffffffffff1673ffffffffffffffffffffffffffffffffffffffff16815260200190815260200160002081905550808061088c906113b3565b915050610648565b50600060028054905090505b60008111156109045760028054806108bb576108ba61142b565b5b6001900381819060005260206000200160006101000a81549073ffffffffffffffffffffffffffffffffffffffff021916905590556001816108fd9190611306565b90506108a0565b50565b61090f610cb2565b73ffffffffffffffffffffffffffffffffffffffff1661092d610b03565b73ffffffffffffffffffffffffffffffffffffffff1614610983576040517f08c379a000000000000000000000000000000000000000000000000000000000815260040161097a906111b5565b60405180910390fd5b61098d6000610cba565b565b610997610cb2565b73ffffffffffffffffffffffffffffffffffffffff166109b5610b03565b73ffffffffffffffffffffffffffffffffffffffff1614610a0b576040517f08c379a0000000000000000000000000000000000000000000000000000000008152600401610a02906111b5565b60405180910390fd5b600160009054906101000a900473ffffffffffffffffffffffffffffffffffffffff1673ffffffffffffffffffffffffffffffffffffffff1663a9059cbb610a51610b03565b836040518363ffffffff1660e01b8152600401610a6f92919061112a565b602060405180830381600087803b158015610a8957600080fd5b505af1158015610a9d573d6000803e3d6000fd5b505050506040513d601f19601f82011682018060405250810190610ac19190610f36565b610b00576040517f08c379a0000000000000000000000000000000000000000000000000000000008152600401610af790611175565b60405180910390fd5b50565b60008060009054906101000a900473ffffffffffffffffffffffffffffffffffffffff16905090565b60606002805480602002602001604051908101604052809291908181526020018280548015610bb057602002820191906000526020600020905b8160009054906101000a900473ffffffffffffffffffffffffffffffffffffffff1673ffffffffffffffffffffffffffffffffffffffff1681526020019060010190808311610b66575b5050505050905090565b610bc2610cb2565b73ffffffffffffffffffffffffffffffffffffffff16610be0610b03565b73ffffffffffffffffffffffffffffffffffffffff1614610c36576040517f08c379a0000000000000000000000000000000000000000000000000000000008152600401610c2d906111b5565b60405180910390fd5b600073ffffffffffffffffffffffffffffffffffffffff168173ffffffffffffffffffffffffffffffffffffffff161415610ca6576040517f08c379a0000000000000000000000000000000000000000000000000000000008152600401610c9d90611195565b60405180910390fd5b610caf81610cba565b50565b600033905090565b60008060009054906101000a900473ffffffffffffffffffffffffffffffffffffffff169050816000806101000a81548173ffffffffffffffffffffffffffffffffffffffff021916908373ffffffffffffffffffffffffffffffffffffffff1602179055508173ffffffffffffffffffffffffffffffffffffffff168173ffffffffffffffffffffffffffffffffffffffff167f8be0079c531659141344cd1fd0a4f28419497f9722a3daafe3b4186f6b6457e060405160405180910390a35050565b6000610d91610d8c8461123a565b611215565b90508083825260208201905082856040860282011115610db457610db36114c2565b5b60005b85811015610de45781610dca8882610e46565b845260208401935060408301925050600181019050610db7565b5050509392505050565b600081359050610dfd816115fb565b92915050565b600082601f830112610e1857610e176114b8565b5b8135610e28848260208601610d7e565b91505092915050565b600081519050610e4081611612565b92915050565b600060408284031215610e5c57610e5b6114bd565b5b610e666040611215565b90506000610e7684828501610dee565b6000830152506020610e8a84828501610e96565b60208301525092915050565b600081359050610ea581611629565b92915050565b600081519050610eba81611629565b92915050565b600060208284031215610ed657610ed56114cc565b5b6000610ee484828501610dee565b91505092915050565b600060208284031215610f0357610f026114cc565b5b600082013567ffffffffffffffff811115610f2157610f206114c7565b5b610f2d84828501610e03565b91505092915050565b600060208284031215610f4c57610f4b6114cc565b5b6000610f5a84828501610e31565b91505092915050565b600060208284031215610f7957610f786114cc565b5b6000610f8784828501610e96565b91505092915050565b600060208284031215610fa657610fa56114cc565b5b6000610fb484828501610eab565b91505092915050565b6000610fc98383610fd5565b60208301905092915050565b610fde8161133a565b82525050565b610fed8161133a565b82525050565b6000610ffe82611276565b611008818561128e565b935061101383611266565b8060005b8381101561104457815161102b8882610fbd565b975061103683611281565b925050600181019050611017565b5085935050505092915050565b600061105e600e8361129f565b9150611069826114e2565b602082019050919050565b600061108160268361129f565b915061108c8261150b565b604082019050919050565b60006110a460208361129f565b91506110af8261155a565b602082019050919050565b60006110c760118361129f565b91506110d282611583565b602082019050919050565b60006110ea60268361129f565b91506110f5826115ac565b604082019050919050565b61110981611378565b82525050565b60006020820190506111246000830184610fe4565b92915050565b600060408201905061113f6000830185610fe4565b61114c6020830184611100565b9392505050565b6000602082019050818103600083015261116d8184610ff3565b905092915050565b6000602082019050818103600083015261118e81611051565b9050919050565b600060208201905081810360008301526111ae81611074565b9050919050565b600060208201905081810360008301526111ce81611097565b9050919050565b600060208201905081810360008301526111ee816110ba565b9050919050565b6000602082019050818103600083015261120e816110dd565b9050919050565b600061121f611230565b905061122b8282611382565b919050565b6000604051905090565b600067ffffffffffffffff82111561125557611254611489565b5b602082029050602081019050919050565b6000819050602082019050919050565b600081519050919050565b6000602082019050919050565b600082825260208201905092915050565b600082825260208201905092915050565b60006112bb82611378565b91506112c683611378565b9250827fffffffffffffffffffffffffffffffffffffffffffffffffffffffffffffffff038211156112fb576112fa6113fc565b5b828201905092915050565b600061131182611378565b915061131c83611378565b92508282101561132f5761132e6113fc565b5b828203905092915050565b600061134582611358565b9050919050565b60008115159050919050565b600073ffffffffffffffffffffffffffffffffffffffff82169050919050565b6000819050919050565b61138b826114d1565b810181811067ffffffffffffffff821117156113aa576113a9611489565b5b80604052505050565b60006113be82611378565b91507fffffffffffffffffffffffffffffffffffffffffffffffffffffffffffffffff8214156113f1576113f06113fc565b5b600182019050919050565b7f4e487b7100000000000000000000000000000000000000000000000000000000600052601160045260246000fd5b7f4e487b7100000000000000000000000000000000000000000000000000000000600052603160045260246000fd5b7f4e487b7100000000000000000000000000000000000000000000000000000000600052603260045260246000fd5b7f4e487b7100000000000000000000000000000000000000000000000000000000600052604160045260246000fd5b600080fd5b600080fd5b600080fd5b600080fd5b600080fd5b6000601f19601f8301169050919050565b7f5265636c61696d206661696c6564000000000000000000000000000000000000600082015250565b7f4f776e61626c653a206e6577206f776e657220697320746865207a65726f206160008201527f6464726573730000000000000000000000000000000000000000000000000000602082015250565b7f4f776e61626c653a2063616c6c6572206973206e6f7420746865206f776e6572600082015250565b7f4e6f7420656e6f75676820746f6b656e73000000000000000000000000000000600082015250565b7f4572726f72206f636375726564207768696c65207472616e73666572696e672060008201527f746f6b656e730000000000000000000000000000000000000000000000000000602082015250565b6116048161133a565b811461160f57600080fd5b50565b61161b8161134c565b811461162657600080fd5b50565b61163281611378565b811461163d57600080fd5b5056fea2646970667358221220986106714e8cd9b297ba4cc10ad9c35ade1cad34c24d0d261c866229702d9b5a64736f6c63430008070033",
  "immutableReferences": {},
  "source": "pragma solidity ^0.8.0;\n\nimport \"@openzeppelin/contracts/access/Ownable.sol\";\nimport \"@openzeppelin/contracts/utils/Context.sol\";\nimport \"@openzeppelin/contracts/token/ERC20/IERC20.sol\";\n\ncontract Airdrop is Context, Ownable {\n  struct Drop {\n    address _recipient;\n    uint256 _amount;\n  }\n\n  address _token;\n  address[] _all;\n\n  mapping(address => uint256) _amounts;\n\n  constructor(address token_) Ownable() {\n    _token = token_;\n  }\n\n  function addRecipients(Drop[] memory _drops) external onlyOwner {\n    uint256 _total = 0;\n\n    for (uint256 i = 0; i < _drops.length; i++)\n      _total = _total + _drops[i]._amount;\n\n    require(\n      IERC20(_token).balanceOf(address(this)) >= _total,\n      \"Not enough tokens\"\n    );\n\n    for (uint256 i = 0; i < _drops.length; i++) {\n      bool _isPresent = false;\n      for (uint256 j = 0; j < _all.length; j++) {\n        if (_all[j] == _drops[i]._recipient) {\n          _isPresent = true;\n        }\n      }\n      if (!_isPresent) _all.push(_drops[i]._recipient);\n    }\n\n    for (uint256 i = 0; i < _drops.length; i++)\n      _amounts[_drops[i]._recipient] = _drops[i]._amount;\n  }\n\n  function executeAirdrop() external onlyOwner {\n    for (uint256 i = 0; i < _all.length; i++) {\n      require(\n        IERC20(_token).transfer(_all[i], _amounts[_all[i]]),\n        \"Error occured while transfering tokens\"\n      );\n      _amounts[_all[i]] = 0;\n    }\n    uint256 _length = _all.length;\n\n    while (_length > 0) {\n      _all.pop();\n      _length = _length - 1;\n    }\n  }\n\n  function reclaimTokens(uint256 _amount) external onlyOwner {\n    require(IERC20(_token).transfer(owner(), _amount), \"Reclaim failed\");\n  }\n\n  function setToken(address token_) external onlyOwner {\n    _token = token_;\n  }\n\n  function getAllRecipients() external view returns (address[] memory) {\n    return _all;\n  }\n}\n",
  "sourcePath": "/home/kingsley/Code-Projects/VeFi-Airdrops/contracts/Airdrop.sol",
  "compiler": {
    "name": "solc",
    "version": "0.8.7+commit.e28d00a7.Emscripten.clang"
  },
  "schemaVersion": "3.4.3",
  "updatedAt": "2021-11-07T20:36:08.920Z",
  "networkType": "ethereum",
  "devdoc": {
    "kind": "dev",
    "methods": {
      "owner()": {
        "details": "Returns the address of the current owner."
      },
      "renounceOwnership()": {
        "details": "Leaves the contract without owner. It will not be possible to call `onlyOwner` functions anymore. Can only be called by the current owner. NOTE: Renouncing ownership will leave the contract without an owner, thereby removing any functionality that is only available to the owner."
      },
      "transferOwnership(address)": {
        "details": "Transfers ownership of the contract to a new account (`newOwner`). Can only be called by the current owner."
      }
    },
    "version": 1
  },
  "userdoc": {
    "kind": "user",
    "methods": {},
    "version": 1
  }
}